:1005AB00C0F9A4B0999282F88098A083A7A1848EF9
:0105BB00FF40
:10058700011801011900011A00C1000408EFDFBFBB
:010597007FE4
:10044200D2ABD2A9D2AFD2B97589117514FC758C11
:10045200FC751618758A18D28C7515B1758DB17523
:1004620017E0758BE0D28E7F08780C7410F608DFE7
:10047200FCE4F50C7F021204FDE519B4010F7F02C2
:100482001204FDC200E4F51912001E80ECE519B455
:1004920002E77F031204FDC200E4F51912012C8069
:0104A200D881
:10053B00E4FDFCC3ED9FEE6480F8EC6480985015ED
:10054B00E4FBFA0BBB00010AEB64784A70F50DBDB6
:05055B0000010C80DE30
:010560002278
:03001B00020239A5
:10023900C0E0C0D075D000C000C001C003C004C078
:0502490005C006C0071E
:10024E0085158D85178BE4FE74082EF8E6F5A0E56E
:10025E00A0F4540FFD7003020316BD010479008053
:10026E0013BD02047901800CBD040479028005BD22
:10027E0008027903EE25E025E029FCBC0C0C7F0872
:10028E00780C7410F608DFFC804ABC0D177F0074E2
:10029E000D2FF8E6FB740C2FF8A6030FBF06F075B2
:1002AE0013108030BC0E057519018028BC0F057522
:1002BE0019028020BC0A04D2008019BC0B04D200A3
:1002CE0080127F07740B2FF8E6FB740C2FF8A60331
:1002DE00DFF28C0C7F06740D2FF8E6B410047C014F
:1002EE0080027C00740C2FF8E670047B0180027B88
:1002FE0000EB5C6006740C2FF87610DFD9ED600809
:10030E00E5A0F4540FFD80F50EEE640460030202C6
:01031E005688
:10031F00D007D006D005D004D003D001D000D0D064
:03032F00D0E032E9
:03000B000204A349
:1004A300C0E0C083C082C0D075D000C000C006C009
:1004B3000785148C85168A7590FF740C251AF8E647
:1004C300FF3395E0FE74AB2FF58274053EF583E4AC
:1004D30093F580E518F4F590E51825E0F518051A6D
:1004E300E51AB40806751801751A00D007D006D0AE
:0A04F30000D0D0D082D083D0E032D8
:10001E007523011203BE8E218F22D3E52294E8E5CB
:10002E0021940340067521037522E8900000C3E574
:10003E00829522E583952140030201278523B0E5B1
:10004E002325E0F523B41003752301D3E50C64805A
:10005E0094804005150C020119750C09D3E50D6449
:10006E008094804024150DE50EB410047F018002AB
:10007E007F00E50D70047E0180027E00EE5F70034E
:10008E00020119750D10020119750D09D3E50E64E3
:10009E008094804020150EE50FB410047F0180027D
:1000AE007F00E50E70047E0180027E00EE5F605BD5
:1000BE00750E108056750E09D3E50F64809480403E
:1000CE0020150FE510B410047F0180027F00E50FAC
:1000DE0070047E0180027E00EE5F602F750F10802F
:1000EE002A750F09D3E5106480948040021510E53F
:1000FE0011B410047F0180027F00E51070047E01B0
:10010E0080027E00EE5F60037510107FFA7E001293
:0E011E00053B200004A302003C7F030204FD09
:10012C007523081203BE8E218F22D3E52294E8E5B5
:10013C0021940340067521037522E8900000C3E565
:10014C00829522E583952140030202348523B0E594
:10015C0023C313F5237003752308D3E50C64809433
:10016C00804005150C020226750C09D3E50D648040
:10017C0094804024150DE50EB410047F0180027F9D
:10018C0000E50D70047E0180027E00EE5F700302BC
:10019C000226750D10020226750D09D3E50E64803A
:1001AC0094804020150EE50FB410047F0180027F6F
:1001BC0000E50E70047E0180027E00EE5F605B75D0
:1001CC000E108056750E09D3E50F64809480402084
:1001DC00150FE510B410047F0180027F00E50F704D
:1001EC00047E0180027E00EE5F602F750F10802A66
:1001FC00750F09D3E5106480948040021510E51149
:10020C00B410047F0180027F00E51070047E018031
:10021C00027E00EE5F60037510107FFA7E001205FF
:0D022C003B200004A302014A7F030204FDF1
:1003BE00E4F529F52A7F011204FDE4FF740C2FF8F1
:1003CE00E6FEB4100874242FF8E4F6800674242F89
:1003DE00F8A6060FBF05E5AF25EF3395E0FE7C00CE
:1003EE007D0A120599AD24ED3395E0FCEF2DFBEE61
:1003FE003CFAAF26EF3395E0FE7C007D6412059942
:10040E00EF2BFBEE3AFAAF27EF3395E0FE7C037D40
:10041E00E8120599EF2BFBEE3AFAAF28EF3395E091
:10042E00FE7C277D10120599EF2BF52AEE3AF52961
:03043E00FEAF2AE4
:010441002298
:0204FD008F2B43
:1004FF00E4F52CC3E52B6480F8E52C648098502B31
:10050F00E4F52DD2B77F017E00120561C2B77F01DE
:10051F007E00120561052DC3E52D648094E440E350
:0B052F007F787E00120561052C80C85B
:01053A00229E
:10056100E4FDFCC3ED9FEE6480F8EC6480985015C7
:10057100E4FBFA0BBB00010AEB643C4A70F50DBDCC
:0505810000010C80DE0A
:010586002252
:03000000020332C6
:0C033200787FE4F6D8FD75812D02037978
:10059900EF8DF0A4A8F0CF8CF0A428CE8DF0A42E76
:0205A900FE2230
:10033E00020442E493A3F8E493A34003F68001F28F
:10034E0008DFF48029E493A3F85407240CC8C333C0
:10035E00C4540F4420C8834004F456800146F6DF8F
:10036E00E4800B0102040810204080900587E47E93
:10037E00019360BCA3FF543F30E509541FFEE49384
:10038E00A360010ECF54C025E060A840B8E493A34B
:10039E00FAE493A3F8E493A3C8C582C8CAC583CA76
:1003AE00F0A3C8C582C8CAC583CADFE9DEE780BE2E
:010598000062
:00000001FF
