:0400E20002090032DD
:0B00D700E4F5901200B51200B580FBAC
:1000B500750801E4F50B850890AF0AAE0912008FAB
:1000C500E50825E0F508050BC3E50B64809484403D
:0100D500E545
:0100D6002207
:10008F00E4FDFCC3ED9FEE6480F8EC64809850159E
:10009F00E4FBFA0BBB00010ABA02F8BB58F50DBD21
:0500AF0000010C80DEE1
:0100B4002229
:03000000020003F8
:0C000300787FE4F6D8FD75810B02004AFE
:10000F000200D7E493A3F8E493A34003F68001F230
:10001F0008DFF48029E493A3F85407240CC8C333F2
:10002F00C4540F4420C8834004F456800146F6DFC1
:10003F00E4800B01020408102040809000E2E47E6F
:10004F00019360BCA3FF543F30E509541FFEE493B6
:10005F00A360010ECF54C025E060A840B8E493A37D
:10006F00FAE493A3F8E493A3C8C582C8CAC583CAA8
:10007F00F0A3C8C582C8CAC583CADFE9DEE780BE60
:0100E6000019
:00000001FF
