:0A00F800C0F9A4B0999283F8809833
:0A00ED0008080200010100010205ED
:10008F00E4F510C3740795102408F8E6F511FF3353
:10009F0095E0FE74F82FF58274003EF583E493F536
:1000AF00A08510907F027E001200C70510C3E510D7
:0800BF006480948840CD80C8E4
:1000C700E4FDFCC3ED9FEE6480F8EC648098501566
:1000D700E4FBFA0BBB00010AEB64784A70F50DBD2F
:0500E70000010C80DEA9
:0100EC0022F1
:03000000020003F8
:0C000300787FE4F6D8FD75811102004AF8
:10000F0002008FE493A3F8E493A34003F68001F278
:10001F0008DFF48029E493A3F85407240CC8C333F2
:10002F00C4540F4420C8834004F456800146F6DFC1
:10003F00E4800B01020408102040809000EDE47E64
:10004F00019360BCA3FF543F30E509541FFEE493B6
:10005F00A360010ECF54C025E060A840B8E493A37D
:10006F00FAE493A3F8E493A3C8C582C8CAC583CAA8
:10007F00F0A3C8C582C8CAC583CADFE9DEE780BE60
:0100F7000008
:00000001FF
