:0B013D00C0F9A4B0999283F88098FFED
:10010E0017080A0A0A0A0A0A0A0A0209090902094A
:09011E0009030A0A0A0A0A0A0A86
:10012800E4F51FAF1F12008F051FC3E51F648094FD
:050138009040F080EB97
:1000E800E4FDFCC3ED9FEE6480F8EC648098501545
:1000F800E4FBFA0BBB00010AEB64784A70F50DBD0E
:0501080000010C80DE87
:01010D0022CF
:02008F008F20C0
:10009100E4F521752301E4F975A0FFE523F4F5905A
:1000A100E9FF3395E0AD20ED3395E0FCC3ED9FFF13
:1000B100740F2FF8E6F522FF3395E0FE743D2FF51E
:1000C1008274013EF583E493F5A07F027E00120065
:1000D100E8E52325E0F52309B908BD0521C3E5219C
:0600E1006480949E40AD16
:0100E70022F6
:03000000020003F8
:0C000300787FE4F6D8FD75812302004AE6
:10000F00020128E493A3F8E493A34003F68001F2DE
:10001F0008DFF48029E493A3F85407240CC8C333F2
:10002F00C4540F4420C8834004F456800146F6DFC1
:10003F00E4800B010204081020408090010EE47E42
:10004F00019360BCA3FF543F30E509541FFEE493B6
:10005F00A360010ECF54C025E060A840B8E493A37D
:10006F00FAE493A3F8E493A3C8C582C8CAC583CAA8
:10007F00F0A3C8C582C8CAC583CADFE9DEE780BE60
:0101270000D7
:00000001FF
