:10012500C0F9A4B0999282F88098A083A7A1848E83
:01013500BF0A
:0C013600040CBFBFBFBF0408EFDFBF7F99
:0501430012008F80FB9B
:1000FF00E4FDFCC3ED9FEE6480F8EC64809850152E
:10010F00E4FBFA0BBB00010AEB64784A70F50DBDF6
:05011F0000010C80DE70
:0101240022B8
:10008F00E4F9740829F8E6F590740C29F8E6F5A060
:10009F00E590F4540FFF604ABF0105E4F510801698
:1000AF00BF0205751001800EBF0405751002800692
:1000BF00BF0803751003E925E025E02510FEE4FDD8
:1000CF00740D2DF8E6FC740C2DF8A6040DBD03F08D
:1000DF00EE90012593F50FEF6008E590F4540FFFB4
:0F00EF0080F57F047E001200FF09E9640470931E
:0100FE0022DF
:03000000020003F8
:0C000300787FE4F6D8FD75811002004AF9
:10000F00020143E493A3F8E493A34003F68001F2C3
:10001F0008DFF48029E493A3F85407240CC8C333F2
:10002F00C4540F4420C8834004F456800146F6DFC1
:10003F00E4800B0102040810204080900136E47E1A
:10004F00019360BCA3FF543F30E509541FFEE493B6
:10005F00A360010ECF54C025E060A840B8E493A37D
:10006F00FAE493A3F8E493A3C8C582C8CAC583CAA8
:10007F00F0A3C8C582C8CAC583CADFE9DEE780BE60
:0101420000BC
:00000001FF
